{
  "contractName": "Auction",
  "abi": [
    {
      "inputs": [],
      "stateMutability": "nonpayable",
      "type": "constructor"
    },
    {
      "inputs": [],
      "name": "highestBid",
      "outputs": [
        {
          "internalType": "uint256",
          "name": "",
          "type": "uint256"
        }
      ],
      "stateMutability": "view",
      "type": "function",
      "constant": true
    },
    {
      "inputs": [],
      "name": "highestBidder",
      "outputs": [
        {
          "internalType": "address",
          "name": "",
          "type": "address"
        }
      ],
      "stateMutability": "view",
      "type": "function",
      "constant": true
    },
    {
      "inputs": [
        {
          "internalType": "address",
          "name": "",
          "type": "address"
        }
      ],
      "name": "userBalances",
      "outputs": [
        {
          "internalType": "uint256",
          "name": "",
          "type": "uint256"
        }
      ],
      "stateMutability": "view",
      "type": "function",
      "constant": true
    },
    {
      "inputs": [],
      "name": "bid",
      "outputs": [],
      "stateMutability": "payable",
      "type": "function",
      "payable": true
    },
    {
      "inputs": [],
      "name": "withdraw",
      "outputs": [],
      "stateMutability": "nonpayable",
      "type": "function"
    },
    {
      "inputs": [],
      "name": "getContractBalance",
      "outputs": [
        {
          "internalType": "uint256",
          "name": "",
          "type": "uint256"
        }
      ],
      "stateMutability": "view",
      "type": "function",
      "constant": true
    }
  ],
  "bytecode": "0x608060405234801561001057600080fd5b506000600181905550336000806101000a81548173ffffffffffffffffffffffffffffffffffffffff021916908373ffffffffffffffffffffffffffffffffffffffff16021790555033600360006101000a81548173ffffffffffffffffffffffffffffffffffffffff021916908373ffffffffffffffffffffffffffffffffffffffff1602179055506108ab806100a96000396000f3fe6080604052600436106100555760003560e01c80631998aeef1461005a57806326224c64146100645780633ccfd60b146100a15780636f9fb98a146100b857806391f90157146100e3578063d57bde791461010e575b600080fd5b610062610139565b005b34801561007057600080fd5b5061008b60048036038101906100869190610598565b610396565b6040516100989190610706565b60405180910390f35b3480156100ad57600080fd5b506100b66103ae565b005b3480156100c457600080fd5b506100cd610551565b6040516100da9190610706565b60405180910390f35b3480156100ef57600080fd5b506100f8610559565b604051610105919061066b565b60405180910390f35b34801561011a57600080fd5b5061012361057d565b6040516101309190610706565b60405180910390f35b600360009054906101000a900473ffffffffffffffffffffffffffffffffffffffff1673ffffffffffffffffffffffffffffffffffffffff163373ffffffffffffffffffffffffffffffffffffffff1614156101ca576040517f08c379a00000000000000000000000000000000000000000000000000000000081526004016101c1906106a6565b60405180910390fd5b346001541061020e576040517f08c379a0000000000000000000000000000000000000000000000000000000008152600401610205906106c6565b60405180910390fd5b336000806101000a81548173ffffffffffffffffffffffffffffffffffffffff021916908373ffffffffffffffffffffffffffffffffffffffff16021790555034600181905550600260003373ffffffffffffffffffffffffffffffffffffffff1673ffffffffffffffffffffffffffffffffffffffff16815260200190815260200160002054341115610350573373ffffffffffffffffffffffffffffffffffffffff166108fc600260003373ffffffffffffffffffffffffffffffffffffffff1673ffffffffffffffffffffffffffffffffffffffff168152602001908152602001600020549081150290604051600060405180830381858888f1935050505061034f576040517f08c379a0000000000000000000000000000000000000000000000000000000008152600401610346906106e6565b60405180910390fd5b5b34600260003373ffffffffffffffffffffffffffffffffffffffff1673ffffffffffffffffffffffffffffffffffffffff16815260200190815260200160002081905550565b60026020528060005260406000206000915090505481565b60008054906101000a900473ffffffffffffffffffffffffffffffffffffffff1673ffffffffffffffffffffffffffffffffffffffff163373ffffffffffffffffffffffffffffffffffffffff16141561043d576040517f08c379a000000000000000000000000000000000000000000000000000000000815260040161043490610686565b60405180910390fd5b6000600260003373ffffffffffffffffffffffffffffffffffffffff1673ffffffffffffffffffffffffffffffffffffffff168152602001908152602001600020549050600081111561054e576000600260003373ffffffffffffffffffffffffffffffffffffffff1673ffffffffffffffffffffffffffffffffffffffff168152602001908152602001600020819055503373ffffffffffffffffffffffffffffffffffffffff166108fc829081150290604051600060405180830381858888f1935050505061054d5780600260003373ffffffffffffffffffffffffffffffffffffffff1673ffffffffffffffffffffffffffffffffffffffff168152602001908152602001600020819055505b5b50565b600047905090565b60008054906101000a900473ffffffffffffffffffffffffffffffffffffffff1681565b60015481565b6000813590506105928161085e565b92915050565b6000602082840312156105aa57600080fd5b60006105b884828501610583565b91505092915050565b6105ca81610732565b82525050565b60006105dd602983610721565b91506105e88261076e565b604082019050919050565b6000610600601083610721565b915061060b826107bd565b602082019050919050565b6000610623602983610721565b915061062e826107e6565b604082019050919050565b6000610646601a83610721565b915061065182610835565b602082019050919050565b61066581610764565b82525050565b600060208201905061068060008301846105c1565b92915050565b6000602082019050818103600083015261069f816105d0565b9050919050565b600060208201905081810360008301526106bf816105f3565b9050919050565b600060208201905081810360008301526106df81610616565b9050919050565b600060208201905081810360008301526106ff81610639565b9050919050565b600060208201905061071b600083018461065c565b92915050565b600082825260208201905092915050565b600061073d82610744565b9050919050565b600073ffffffffffffffffffffffffffffffffffffffff82169050919050565b6000819050919050565b7f48494748455354204249444445522043414e4e4f542054414b45204241434b2060008201527f544845204f464645520000000000000000000000000000000000000000000000602082015250565b7f4f574e45522043414e4e4f542042494400000000000000000000000000000000600082015250565b7f4f46464552204d55535420424520484947484552205448414e2054484520484960008201527f4748455354204249440000000000000000000000000000000000000000000000602082015250565b7f4e4f5420454e4f55474820455448204f4e20434f4e5452414354000000000000600082015250565b61086781610732565b811461087257600080fd5b5056fea2646970667358221220728dcb561a928724753c9c5608d392b3bdc6f329b12c1349992ef5dba00abf6964736f6c63430008030033",
  "immutableReferences": {},
  "source": "//SPDX-License-Identifier: GPL-3.0\npragma solidity >= 0.8.0 <= 0.8.3;\n\ncontract Auction {\n    address public highestBidder; // The highest bidder's address\n    uint public highestBid; // The amount of the highest bid\n    mapping(address => uint) public userBalances; // mapping for the amount to return \n    //uint256 constant WITHDRAW_INTERVAL=10 seconds;\n    address payable owner;\n    \n    constructor(){\n        // contractor\n        // 1. Initialize highest bid and the bidder's address\n        highestBid=0;\n        highestBidder=msg.sender;\n        owner=payable(msg.sender);\n    }\n    \n    \n    modifier notOwner(){\n        require(msg.sender!=owner,\"OWNER CANNOT BID\");\n        _;\n    }\n\n    modifier notHighestBidder(){\n        require(msg.sender!=highestBidder,\"HIGHEST BIDDER CANNOT TAKE BACK THE OFFER\");\n        _;\n    }\n    \n    function bid() public payable notOwner{\n    // Function to process bid\n    // 1. Check if the bid is greater than the current highest bid\n    // 2. Update status variable and the amount to return\n    \n        require(highestBid<msg.value,\"OFFER MUST BE HIGHER THAN THE HIGHEST BID\");\n        \n        highestBidder=msg.sender;\n        highestBid=msg.value;\n            \n        \n        if(msg.value>userBalances[msg.sender]){\n                require(payable(msg.sender).send(userBalances[msg.sender]),\"NOT ENOUGH ETH ON CONTRACT\"); \n        }\n        \n        userBalances[msg.sender]=msg.value;\n    }\n    \n    function withdraw() public notHighestBidder{\n      \n      \n        uint amount = userBalances[msg.sender];\n        if (amount > 0) {\n            // It is important to set this to zero because the recipient\n            // can call this function again as part of the receiving call\n            // before send returns.\n            userBalances[msg.sender] = 0;\n\n            if (!payable(msg.sender).send(amount)) {\n                // No need to call throw here, just reset the amount owing\n                userBalances[msg.sender] = amount;\n                \n            }\n        }\n        \n    }\n    \n    function getContractBalance() public view returns(uint){\n        \n        return(address(this).balance);\n    }\n}\n",
  "sourcePath": "/home/vassilina/Documents/Webapp/contracts/Auction.sol",
  "compiler": {
    "name": "solc",
    "version": "0.8.3+commit.8d00100c.Emscripten.clang"
  },
  "schemaVersion": "3.4.1",
  "updatedAt": "2021-05-23T11:57:47.225Z",
  "networkType": "ethereum",
  "devdoc": {
    "kind": "dev",
    "methods": {},
    "version": 1
  },
  "userdoc": {
    "kind": "user",
    "methods": {},
    "version": 1
  }
}